:10000000B8680020E9320000AF75000089310000B7
:1000100089310000893100008931000089310000F8
:10002000893100008931000089310000592D00001C
:100030008931000089310000012D00003574000075
:10004000C1320000C1320000C1320000C1320000E4
:10005000C1320000C1320000C1320000C1320000D4
:10006000C1320000C1320000C1320000C1320000C4
:10007000C1320000C1320000C1320000C1320000B4
:10008000C1320000C1320000C1320000C1320000A4
:10009000C1320000C1320000C1320000C132000094
:1000A000C1320000C1320000C1320000C132000084
:1000B000C1320000C1320000C1320000C132000074
:1000C000C1320000C1320000C1320000C132000064
:1000D000C1320000C1320000C1320000C132000054
:1000E000C1320000C1320000C1320000C132000044
:1000F000C1320000C1320000C1320000C132000034
:100100007BB972B90029BEBF00204FF0004106E064
:1001100008BF00281CBF6FF000414FF0FF3000F017
:10012000BDB9ADF1080C6DE904CE002909DB002B47
:100130001ADB00F04DF8DDF804E0DDE9022304B03D
:100140007047404261EB4101002B1BDB00F040F89F
:10015000DDF804E0DDE9022304B0404261EB410137
:10016000524263EB43037047524263EB430300F098
:100170002FF8DDF804E0DDE9022304B0404261EB32
:1001800041017047524263EB430300F021F8DDF870
:1001900004E0DDE9022304B0524263EB43037047FD
:1001A00053B94AB9002908BF00281CBF4FF0FF31DE
:1001B0004FF0FF3000F072B9ADF1080C6DE904CEDC
:1001C00000F006F8DDF804E0DDE9022304B0704732
:1001D0002DE9F047089E04468846002B4BD18A4201
:1001E000154667D9B2FA82F24AB1C2F1200701FA84
:1001F00002F320FA07F7954047EA030894404FEAD4
:10020000154E230CB8FBFEF71FFA85FC0EFB178872
:1002100043EA084307FB0CF1994209D9EB1807F1AF
:10022000FF3080F01B81994240F21881023F2B443D
:100230005B1AA4B2B3FBFEF00EFB103344EA034496
:1002400000FB0CFCA44509D92C1900F1FF3380F008
:100250000781A44540F2048102382C4440EA07405B
:10026000A4EB0C0400271EB1D4400023C6E90043D0
:100270003946BDE8F0878B4209D9002E00F0EB80AB
:100280000027C6E9000138463946BDE8F087B3FAD1
:1002900083F7002F47D18B4202D3824200F2FA80CB
:1002A000841A61EB030301209846002EE0D0C6E9D2
:1002B0000048DDE702B9FFDEB2FA82F2002A40F020
:1002C0008F80491B4FEA154E1FFA85F80127B1FBB5
:1002D000FEFC230C0EFB1C1143EA014308FB0CF14E
:1002E000994207D9EB180CF1FF3002D2994200F283
:1002F000CD808446591AA3B2B1FBFEF00EFB101458
:1003000043EA044408FB00F8A04507D92C1900F182
:10031000FF3302D2A04500F2B6801846A4EB0804D1
:1003200040EA0C409FE7C7F1200CBB4022FA0CFECC
:100330004EEA030E01FA07F420FA0CF521FA0CF349
:100340004FEA1E482543B3FBF8F92C0C08FB193380
:100350001FFA8EFA44EA034309FB0AF49C4202FAAC
:1003600007F200FA07F10BD91EEB030309F1FF3086
:1003700080F087809C4240F28480A9F10209734496
:100380001B1BADB2B3FBF8F008FB103345EA034486
:1003900000FB0AFAA24508D91EEB040400F1FF3362
:1003A0006BD2A24569D90238744440EA0940A0FBE7
:1003B0000289A4EB0A044C45C2464B4654D351D0A3
:1003C000002E69D0B1EB0A0564EB030404FA0CFCBF
:1003D000FD40FC404CEA0505C6E90054002747E70C
:1003E000C2F1200320FA03F7954001FA02F021FA46
:1003F00003F34FEA154E3843010CB3FBFEF71FFA27
:1004000085F80EFB173341EA034107FB08F38B42E3
:1004100004FA02F407D9691807F1FF3C2FD28B4286
:100420002DD9023F2944CB1A81B2B3FBFEF00EFB5B
:10043000103341EA034100FB08F38B4207D96918E6
:1004400000F1FF3C17D28B4215D902382944C91A52
:1004500040EA07473BE73746304609E70746E7E605
:100460001846FBE64145ABD2B8EB020A69EB0E0237
:1004700001381346A4E76046E9E7184695E7674662
:10048000D1E781467CE702382C4447E7ACF1020C07
:100490002B442FE7384608E73746E9E6704700BFA8
:1004A00070B584B04FF00000032363F302006FF3D4
:1004B000C500454D454B5B1BC3F3C90363F38F1068
:1004C000434906F0B5FE00F0E7F8424800F094F822
:1004D00000283DD0404804F08BFF044643681E6866
:1004E0004FF480730B220021B04763689E686B460F
:1004F0000B2200212046B047009BA3B94FF000001B
:10050000032363F302006FF3C500304B5B1BC3F39F
:10051000C90363F38F10314906F08AFE01F0E4FE4F
:100520002F4802F055FB01A800F048FB00B34FF044
:100530000000012363F302006FF3C500234B5B1B34
:10054000C3F3C90363F38F10264906F071FEFEE77B
:10055000012363F302006FF3C5001C4B5B1BC3F365
:10056000C90363F38F101B4A1F4906F061FEFEE7C3
:1005700003264FF0000066F302006FF3C500134C32
:10058000641BC4F3C90464F38F10039A174906F07F
:100590004FFE4FF0000066F302006FF3C50064F3F6
:1005A0008F10134906F044FE01A805F081FF4FF0BB
:1005B0000000012363F302006FF3C50064F38F10A2
:1005C0000C4906F035FEFEE7CCAF0000DCAF0000C2
:1005D00010B0000024B0000054B000005CB0000077
:1005E00008B000007CB0000038B000009CB00000F3
:1005F000C8B00000E8B0000008B5054B1B6813B197
:10060000034B186808BD04F0F3FE014B1860F7E7D0
:100610000800002010B900200860704708B50246A5
:100620004FF00000012363F302006FF3C500074B96
:1006300007495B1AC3F3C90363F38F10002305490D
:1006400006F0F6FD6FF0150008BD00BFDCAF00003E
:10065000CCAF000014B10000022803D8034B53F8BC
:10066000200070476FF01500704700BF08B1000010
:1006700010B584B00C4601AA0146064B186809F073
:10068000CBFB034618B9019A2260029A62601846B1
:1006900004B010BD0800002008B54FF4C051024856
:1006A00003F0CAF808BD00BF0C00002038B5064CA6
:1006B000206A06F0ADFE0546A06D06F0A9FE854253
:1006C00000D238BD2846FCE70C18002070B582B077
:1006D0000446FFF7C1FF01A9C0B201F03FF9F0B92C
:1006E0000646019805F002FF0546019806F012FE45
:1006F0000C482C2303FB04000023032B05D8C25C09
:10070000954207D10133DBB2F7E7012323B130462D
:1007100002B070BD0023F9E74FF0FF36F7E74FF066
:10072000FF36F4E70C1800202DE9F8435B4B9E6A76
:100730005F6DB6F5807F0ED8B7F5807F0BD8574B2D
:100740009B6DD3F808800020044601468446864607
:100750000246034625E04FF00000022363F3020047
:100760006FF3C5004E4B4F4A9B1AC3F3C90363F3A3
:100770008F104D4906F05CFD0020BDE8F883DFF8DE
:100780001C91D9F8245005EBC1056D682B44D9F8AC
:10079000505005EBC4056D682A44013101349A427A
:1007A00043D0B14201D3BC425CD29A42E7D09A42D4
:1007B0001DD93A4D6D6A05EBC1056D682B440228C1
:1007C00002D001310120EAE74FF00000022363F379
:1007D00002006FF3C500324B324A9B1AC3F3C903C0
:1007E00063F38F10314906F023FD0020C5E72B4D40
:1007F0002D6D05EBC4056D682A44012802D0013433
:100800000220CCE74FF00000022363F302006FF3F5
:10081000C500234B234A9B1AC3F3C90363F38F100C
:10082000224906F005FD0020A7E79E449444434575
:1008300005D8424503D8002002460346B1E74FF0F1
:100840000000022363F302006FF3C500144B154A46
:100850009B1AC3F3C90363F38F10154906F0E8FC34
:1008600000208AE7B14201D1BC4212D04FF0000013
:10087000022363F302006FF3C500094B094A9B1A78
:10088000C3F3C90363F38F100A4906F0D1FC0020BB
:1008900073E7E645EAD101206FE700BF0C1800209E
:1008A000DCAF0000CCAF00002CB2000058B200005A
:1008B0008CB20000C0B2000030B583B002A94FF482
:1008C000807341F8043D184B5A6A012001F05AF830
:1008D00018B10124204603B030BD134B019A9A622F
:1008E00002A94FF4807241F8042D1A6D022001F024
:1008F00049F808B10124EDE70B4B019A5A6502A9AA
:100900004FF4807241F8042DDA6D032001F03AF8BB
:10091000044608B10124DDE7034D019B2B66FFF778
:10092000C5FE85F86400D5E70C18002000B585B039
:1009300000230293019300934FF48073054A00F063
:10094000CBFA034618B9184605B05DF804FB03233B
:10095000F9E700BF7434002070B582B004460E463B
:10096000FFF77AFE01A9C0B200F0F8FF18B1012527
:10097000284602B070BD224D2C2000FB04552046B5
:10098000FFF7A4FE90B31E4A2B6913F0100F33D16A
:100990002C2303FB04F3D2581A4B9A4216D0ECB91D
:1009A0004FF00000012363F302006FF3C500164B04
:1009B000164A9B1AC3F3C90363F38F10A4B9144AF0
:1009C000144906F035FC4FF0FF3511E0324601992D
:1009D0002846FFF7ABFF054650B1E0E70198826873
:1009E000002106F0E7FCDBE70B4AE9E74FF0FF35B3
:1009F000019806F08FFCBBE74FF0FF35F8E700BF2A
:100A00000C1800203DB8F396DCAF0000CCAF00001E
:100A1000ECB2000000B30000F4B200002DE9F84F82
:100A200080468A46174699460A9E00250FE02346CF
:100A30000F4AE919404606F06EFCA0B923460C4A5D
:100A400005EB0901504606F085FC70B92544B54216
:100A500006D2741BB4F5806FE9D94FF48064E6E7E1
:100A60000020BDE8F88F0120FBE70120F9E700BF77
:100A7000741800202DE9F04186B0002406AA42F83F
:100A80000C4D3B4E06F12C01012005F073FD0327B0
:100A90004FF0000067F3020064F3C500DFF8E48064
:100AA000344DA5EB0805C5F3C90565F38F10324930
:100AB00006F0BEFB4FF0000067F3020064F3C500D0
:100AC00065F38F102D4906F0B3FB05A9012000F056
:100AD00045FF04A9022000F041FFB76A2546BC4249
:100AE0000FD2234B5B6A03EBC4035E683246294690
:100AF000059806F05FFC3544039BAB4201D90134F5
:100B0000EDE74FF00000032363F302006FF3C5002D
:100B1000184BA3EB0808C8F3C90868F38F102A46DE
:100B2000174906F085FB009500231A46059904989D
:100B3000FFF774FF0E4C236D5A680021049806F0ED
:100B400039FC636D013B226D02EBC30052F8331098
:100B500013684268C91A049806F02CFC059806F040
:100B6000D9FB049806F0D6FB002006B0BDE8F08162
:100B70000C180020DCAF000044B1000074B100008C
:100B800090B10000CCAF000038B505460024012C20
:100B90000FDC094B2C2101FB0431204605F039FD07
:100BA000034608B90134F2E7002C03DD15B9002330
:100BB00000E00023184638BD0C18002070B582B044
:100BC0000646584B584A5A62584A1A65584ADA65D6
:100BD00000240CE02046FFF73FFD2C2303FB04F329
:100BE000203350491944C0B200F0B8FE0134012C42
:100BF000F0D95049032000F0B1FEFFF75DFE054635
:100C0000C0B14FF00000022363F302006FF3C50090
:100C1000494B4A4A9B1AC3F3C90363F38F104FF43D
:100C20008072474906F004FB3E4B986D06F072FB5C
:100C3000002472E00020FFF7A7FF05460028F3D14B
:100C4000FFF772FD50B901230193019B013B042B77
:100C500011D8DFE803F00A1414140D0001A805F000
:100C6000B7FC05460028DFD1EFE700231C4608E06B
:100C70000123002405E0FF230193002301E0012369
:100C80001C46019AFF2A11D013BB264B1A682D4B24
:100C90009A4225D1234B1A6A527832711A6A5268E5
:100CA000B2602C2202FB04343460BDE74FF0000038
:100CB000012363F302006FF3C5001F4B1F4A9B1A09
:100CC000C3F3C90363F38F101F4906F0B1FAFEE7BF
:100CD0000020FFF759FF05460028A5D10024D4E7DE
:100CE0004FF00000012363F302006FF3C500124BC5
:100CF00012495B1AC3F3C90363F38F10134906F05B
:100D000097FA032590E7C4F10103064A2C2101FB61
:100D10000323186A06F0FEFA0134012CF3D92846A1
:100D200002B070BD0C180020741C0020742C002030
:100D30007424002064180020DCAF0000CCAF000059
:100D4000CCB100003DB8F3960CB2000014B2000024
:100D500008B51022034906F082FC08B9012008BD3D
:100D60000220FCE724B3000010B582B001A90120E5
:100D700005F0DFFC002867D16946022005F0D9FCA8
:100D8000002864D1002307E06278042A13D09DF87C
:100D900000108A420FD00133022B42D803EB4302EA
:100DA00052002C498C188A5C042AEDD09DF804105E
:100DB0008A42F0D1E8E7A278042A03D09DF8061011
:100DC0008A42E8D1E278042A03D09DF802108A42D0
:100DD000E1D12279042A03D09DF805108A42DAD1A4
:100DE0004FF00000032363F302006FF3C5001A4BBA
:100DF0001A4A9B1AC3F3C90363F38F106379022B5A
:100E00000BD0032B0BD0042B05D0154A154906F047
:100E10000FFA607919E0144AF8E7144AF6E7144A21
:100E2000F4E74FF00000032363F302006FF3C50003
:100E3000094B0A4A9B1AC3F3C90363F38F100D4988
:100E400006F0F6F9012000E0FF2002B010BDFF20FF
:100E5000FBE700BF34B30000DCAF0000CCAF000004
:100E600058B3000074B300006CB3000050B300002E
:100E700048B3000084B3000070B5A4B006460D4628
:100E80000024134B1B68A3421CDD09A807F0FDFFDB
:100E9000002109A807F0FFFF0E4B03EBC4025268C4
:100EA000126853F8341009A808F03CF801A909A801
:100EB00008F0DBF82A46314601A806F0D0FB18B14D
:100EC0000134DEE74FF0FF34204624B070BD00BF90
:100ED00038B100003CB100002DE9F047CEB0064625
:100EE0000D46579C0294569C019404AC009405F066
:100EF0003AFC8046002840F09580589B23B1202280
:100F000004A9184606F0C2FBF46833891C44042384
:100F10004DAA2146284606F0FEF98046002840F0FA
:100F20008180BDF8342146F607139A4276D1BDF888
:100F3000366126440434824681464FF0FF3717E07D
:100F4000BDF83231202B71D10CAA211D284606F0A4
:100F5000E2F900286DD120220CA904A806F07FFB3D
:100F6000002868D14FF00109BDF832311C44043427
:100F7000B4424AD204234CAA2146284606F0CBF9B3
:100F800000284ED19DF83031102BD9D0012B20D024
:100F9000202BE9D1002F2DDB2F4B1B68BB422CDD12
:100FA000BDF83231B3F5807F4DD10CAA211D284602
:100FB00006F0B1F9002849D1BDF83231FFB20097EF
:100FC0000CAA202104A800F0BDF8C8B14FF0FF37EB
:100FD000CAE7BDF83231202B30D80CAA211D284693
:100FE00006F099F968BB9DF832110CA8FFF744FF91
:100FF0000746B9E74FF0FF37B6E74FF0FF37B3E7E3
:101000004FF0FF374FF0010AAEE7B9F1000F20D0E3
:10101000BAF1000F06D14FF0FF3803E04FF0FF3870
:1010200000E0804640464EB0BDE8F0874FF0FF3804
:10103000F8E78046F6E74FF0FF38F3E74FF0FF3868
:10104000F0E78046EEE74FF0FF38EBE74FF0FF3870
:10105000E8E74FF0FF38E5E738B1000070B5ADF5CF
:101060001C7D4468B4F5807F55D1202A56D10E46A8
:1010700041AA194602F0DAFC0546002851D19DF834
:101080000332BC2B50D10DF2E31109A805F0FCFB93
:101090002B4606E041AAD25C09A8C45C6240C25457
:1010A0000133DE2BF6DD9DF8243003F07F038DF84D
:1010B0002430BD2D05DC09AB5B5D002B37D101353C
:1010C000F7E79DF8E230012B37D181A807F0DDFE6C
:1010D000002181A807F0DFFE0822194981A807F046
:1010E00021FF2022314681A807F01CFF20220DF1AC
:1010F000E30181A807F016FF01A981A807F0B5FF59
:1011000020220DF2E31101A806F0A9FA034680B1EE
:101110004FF0FF330DE04FF0FF330AE04FF0FF33A5
:1011200007E04FF0FF3304E04FF0FF3301E04FF0F2
:10113000FF3318460DF51C7D70BD4FF0FF33F8E707
:1011400094B300002DE9F041ACB005460E461746B9
:101150001C469DF8C8800022114601A807F04FFEEA
:10116000124B53F838202CA941F8B02D03EBC803DB
:101170005B681B681A4401A805F031FB804610B972
:10118000029BA34206D001A807F047FE40462CB0C0
:10119000BDE8F0813B463246294601A8FFF75EFFD5
:1011A000804601A807F039FEF0E700BF3CB100001F
:1011B0002DE9F043DDF81CE0BEF1000F18D03D4CE6
:1011C000A4FB0E4C4FEA5C0C0CEB4C04A6450CBF88
:1011D00064460CF10104B4F1804F0CD2A400013438
:1011E0008C420ED868B10CEB4C0C0446002733E05F
:1011F0000020106055E04FF0FF3313606FF00B00DC
:101200004FE014606FF00B004BE093F800805978CA
:101210009D78294E4FEA980916F8099084F80090B5
:101220004FEA081808F0300808EB211808F03F08CA
:1012300016F8088084F80180890001F03C0101EB78
:10124000A51101F03F01715CA17005F03F05715DD2
:10125000E1700337043403336745D6D377451CD296
:101260001978013777451ED25D78134E8B08F35CF1
:1012700023700B0103F0300303EB251303F03F034E
:10128000F35C6370774510D2AD0005F03C05E31CBC
:10129000715DA1705C1C3D211970201A1060002046
:1012A0002070BDE8F0830025DFE7E31C3D21A1703D
:1012B000F0E700BFABAAAAAA30B50000F0B5059FC1
:1012C0004FF0000EF446744624E001340135BC4270
:1012D00002D21E5D202EF8D0BC422CD03E1B012E27
:1012E00002D91E5D0D2E19D01E5D0A2E11D0002DC3
:1012F00078D13D2E17D016F0800F76D13F4DAD5DE1
:101300007F2D75D03F2D02D8BEF1000F73D10CF1A7
:10131000010C0134BC420ED20025D8E71E197678A4
:101320000A2EE1D1F5E70EF1010EBEF1020FE2D96E
:101330006FF0150055E0BCF1000F17D04FEADC0646
:1013400006EB460675000CF0070C0CEB4C0C4FEA54
:101350004C06073605EBD605A5EB0E0548B18D42C8
:1013600007D88446002703263D4609E00020106088
:1013700037E015606FF00B0033E00025013C0133CE
:101380005CB319780D29F9D00A29F7D02029F5D0B6
:10139000DFF868E01EF80110402908BF013E01F0A7
:1013A0003F0141EA87170135042DE7D12EB1C7F37C
:1013B00007418CF800100CF1010C012E05D9C7F380
:1013C00007218CF800100CF1010C022ED5D98CF8F5
:1013D00000700CF1010C0025D0E7ACEB00001060B0
:1013E0000020F0BD6FF01500FBE76FF01500F8E787
:1013F0006FF01500F5E76FF01500F2E7B0B40000EC
:1014000008B50B6801330B60014B1B68984708BD9A
:10141000688100202DE9F84F81468A4615469B4693
:101420000A9B002B2FDD01270A264FF00008214CD4
:1014300012E0601CB5FBF0F051463030C847013770
:101440004FF00108013E631CB5FBF3F203FB12559C
:10145000194BA3FB0434E408082C17D9B8F1000F8A
:10146000E7D1AC42E5D30A9B9E42EBDCBBF1020F15
:10147000E8D8BBF1010F04D020205146C8470137FE
:10148000E0E73020F9E701230A93CCE7514605F164
:101490003000C847BBF1030F01D0BDE8F88F0A9BAD
:1014A000DF1B03E051462020C84727467C1E002F43
:1014B000F8DCF2E7FFC99A3BCDCCCCCC10B582B0BA
:1014C00002AC002344F8043D0B4602462146024884
:1014D00005F02FFD02B010BD0114000010B54FF053
:1014E0002003EFF3118483F31188BFF36F8F00F0B3
:1014F0007DF80123084AC2F840354FF08042C2F817
:101500007835064B4FF0FF329A62DA6284F3118825
:10151000BFF36F8F002010BD00E0014000ED00E040
:10152000C0B2074B1860BFF34F8F0649CA6802F478
:10153000E062054B1343CB60BFF34F8F00BFFDE765
:101540001C05004000ED00E00400FA05064B1B6896
:10155000082B01D000207047044B1B680BB1002002
:1015600070470120704700BF3001001034010010A7
:10157000064B1B68082B01D000207047044B1B68EA
:101580000BB1002070470120704700BF30010010F0
:1015900034010010064B1B68082B01D00020704757
:1015A000044B1B680BB1002070470120704700BF3F
:1015B0003001001034010010064B1B68082B01D0CD
:1015C00000207047044B1B680BB1002070470120BE
:1015D000704700BF3001001034010010014B024A77
:1015E0001A6070476C8100200090D00308B505F0A8
:1015F00013FE40B14FF080430022C3F80C21C3F822
:101600001021C3F8382505F009FE002846D04FF018
:101610008052D2F804145B4BC3F82015D2F808149A
:10162000C3F82415D2F80C14C3F82815D2F81014F6
:10163000C3F82C15D2F81414C3F83015D2F81814C6
:10164000C3F83415D2F81C14C3F84015D2F820148E
:10165000C3F84415D2F82414C3F84815D2F8281456
:10166000C3F84C15D2F82C14C3F85015D2F8301426
:10167000C3F85415D2F83414C3F86015D2F83814EE
:10168000C3F86415D2F83C14C3F86815D2F84014B6
:10169000C3F86C15D2F84424C3F87025FFF756FF41
:1016A00010B1394B394A1A60FFF762FF18B1384B55
:1016B000FB22C3F81825FFF76DFF48B135490B68C9
:1016C00023F00F03344A126802F00F0213430B6039
:1016D000FFF772FF18B1314B4FF400721A6005F03A
:1016E0009FFD60B14FF08043D3F8003413F0010F39
:1016F00005D04FF080436FF00102C3F800244FF093
:101700001023D3F80032002B08DB4FF01023D3F85E
:101710000432002B02DBFFF761FF08BD204B0122E2
:10172000C3F804251E4BD3F80034002BFAD04FF039
:1017300010231222C3F80022194BD3F80034002BD7
:10174000FAD04FF010231222C3F80422144BD3F81E
:101750000034002BFAD0124B0022C3F80425104BA2
:10176000D3F80034002BFAD0BFF34F8F0D49CA686D
:1017700002F4E0620C4B1343CB60BFF34F8F00BF0A
:10178000FDE700BF00C000408C56004048810300C8
:1017900000F00040E40E0040580200104096024065
:1017A00000E0014000ED00E00400FA052DE9F043FF
:1017B00083B080460F461646114B1B6898478146FA
:1017C000002400E001340F4B0F4A9B1AB4EB231F97
:1017D00012DA0D4800EB041043685B79002BF1D05E
:1017E0002301094AD3585D68002DEBD000963B4693
:1017F0004A464146A847E5E703B0BDE8F08300BF8D
:101800007081002004B0000004B0000008B5044B53
:10181000044A1A604FF4004000F072F808BD00BF9F
:101820007081002029720000064BC31A1B1101337E
:101830004268137143681960426801235371024A78
:101840001370704704B00000AA40002038B5154B53
:10185000BFF35B8F53E8002F511C43E800100028B2
:10186000F8D1BFF35B8FDAB9002405E00422002130
:101870002846FFF7D9FF01340B4B0C4A9B1AB4EBF7
:10188000231F0DDA094D05EB04152B7B002BF2D03D
:101890002301064AD3585B69002BE7D09847E5E758
:1018A00038BD00BF7435002004B0000004B0000053
:1018B000104B1B7803B1704710B5FFF7C7FF00242A
:1018C00000E001340C4B0D4A9B1AB4EB231F0CDAD9
:1018D0000A4800EB041043685B79002BF1D0230128
:1018E000064AD3581B699847EBE7024B01221A704E
:1018F00010BD00BFAB40002004B0000004B00000E9
:10190000074B01221A6004E04008054A13685B0097
:101910001360044B9842F7D8034B1860704700BF20
:101920007C35002040420F007835002010B404467A
:101930000022084B1B68934208DD13010649096821
:10194000C818CB5CA34202D00132F2E7002010BCE1
:10195000704700BF08B6000074810020084B1B6868
:101960003BB110B50C46FFF7E1FF28B12060002025
:1019700010BD6FF00C0070476FF00100F8E700BF7A
:101980007481002000B58BB003AB0093024B05F0CF
:101990009EFC0BB05DF804FB9372000008B5044692
:1019A0004FF02002EFF3118382F31188BFF36F8FA2
:1019B00005F041FD2046FFF7B3FD034805F01DFC8F
:1019C00001F0DCFBFCE700BF0CB6000070B50D4B6E
:1019D0001C6863685B6B83B10E46054620469847DA
:1019E000034640B1074B186843689B693BB13246D8
:1019F000294698470346184670BD0023FBE700239D
:101A0000F9E700BF8435002038B5034608E0074AEF
:101A100010685D1C42685268197890472B46214631
:101A20004C1E0029F3D1002038BD00BF84350020B2
:101A300010B582B004464368DB6A03B19847636817
:101A40001B6A0BB12046984763689B6933B101223A
:101A50000DF10701204698470028F5D163682BB1A6
:101A60009B6C1BB1224605492046984763689B6AD8
:101A70000BB12046984702B010BD00BF411B0000CB
:101A800000B583B0002201A9064803F0E1FD30B99A
:101A900001980023C0F8843003B05DF804FB0020F7
:101AA000FAE700BF9C82002000B583B002A941F88C
:101AB000040D034803F0FEFD03B05DF804FB00BF16
:101AC0009C82002038B505461B4B1B7813B91B4B75
:101AD0001B68BBB1194B1C68174B1B7843B9D4F872
:101AE00084307F2B18D85A1CC4F8842023441D71DD
:101AF0000A2D1FD1104B1B78C3B9104B00221A605E
:101B0000204638BDFFF7BCFF0C4B18600028E1D120
:101B1000094B01221A70DDE72046FFF7C5FF074B8E
:101B200000221A60044B01221A70E1E70024024BE4
:101B30001C70E5E70024E3E7AC400020803500207E
:101B400030B589B0134B186843685B6C03B3984792
:101B5000F0B1104B186843681B6CCBB19847B8B113
:101B600020216846FFF732FF05460028EAD000240E
:101B700000E00134AC42E5DA08AB234413F8200C52
:101B8000FFF7A0FF0028F4D0034A12689047F0E75F
:101B900009B030BD843500208835002008B5002309
:101BA000014A07F096FE08BD091A000008B5054B6A
:101BB0001860054803F01CFC044B186008B1FFF7DF
:101BC00037FF08BD8835002038B600008435002076
:101BD0004FF02003EFF3118183F31188BFF36F8F70
:101BE000164B1A789AB1531EDBB214480370ABB986
:101BF000134B1B78CBB9124B01221A7081F3118859
:101C0000BFF36F8F0F490A6000201870704781F38F
:101C10001188BFF36F8F6FF04400704781F3118814
:101C2000BFF36F8F6FF00F007047044B1A7081F392
:101C30001188BFF36F8F6FF00A007047AF4000202C
:101C4000AE4000200400004010B54FF02003EFF339
:101C5000118483F31188BFF36F8F314A1378581CB6
:101C6000107073B184F31188BFF36F8F4FF080430E
:101C7000D3F80C3403F00113B3F1011F4CD1002051
:101C800010BD284A1278BAB9264B01221A7084F383
:101C90001188BFF36F8F002936D0002001F014FAAD
:101CA0004FF080430022C3F80021D3F8041301222F
:101CB000C3F804231A600BE0194A137084F31188E7
:101CC000BFF36F8F6FF00A00DAE720BF40BF20BF7D
:101CD0004FF08043D3F80031002BF6D04FF0804313
:101CE0000022C3F8002111F0010F02D10122C3F834
:101CF00008230D4B0122C3F88021002001F0D4F904
:101D0000084B00221A70B1E74FF080430022C3F85D
:101D1000002101221A60F3E76FF04300B0E700BF33
:101D2000AF400020AE40002000E100E02DE9F0418E
:101D300080464FF08043D3F80801D3F8042302F023
:101D40000102D3F80011D3F8046306F00206D3F8B9
:101D50000451D3F80C71D3F81041003418BF01249A
:101D600010B10020C3F8080121B14FF080430020DA
:101D7000C3F8000192B141B94FF08043D3F80C345D
:101D800003F00113B3F1011F08D14FF0804301228A
:101D9000C3F808231B49022008601A6175B14FF08F
:101DA00080430022C3F8042146B10222C3F808236D
:101DB000D3F81C3413F0030F00D1012417B974B900
:101DC000BDE8F08100210F4B19604FF08046C6F846
:101DD0000C114046FFF7FCFE01237361EFE74FF063
:101DE00080430021C3F810110122C3F804234046A8
:101DF000FFF72AFF0028E3D1034B0122C3F800219B
:101E0000DEE700BF340C004000E100E038B54FF0E1
:101E10002002EFF3118382F31188BFF36F8F2A4AF8
:101E200012788AB183F31188BFF36F8F4FF080422D
:101E3000D2F81C3403F0030343F48033D2F818249F
:101E400093433DD1002038BD01241F4A147083F311
:101E50001188BFF36F8F4FF080430022C3F8042135
:101E6000C3F818150225C3F80453184D2C60182424
:101E7000C3F80843C3F80C21C3F8102111F0030F75
:101E8000D4D11022C3F83825C3F80443D3F818344A
:101E900013F4803F05D14FF080430222C3F804239E
:101EA000C4E74FF080430122C3F804230021FFF769
:101EB000CBFE0028BAD1064B0122C3F80021B5E7BA
:101EC0006FF04300BFE700BFAD40002008000040B6
:101ED00000E100E020F07F40014BC3F8400570476F
:101EE00000100140014BD3F8040570470010014079
:101EF00070B5134B0022C3F840214FF02003EFF3DD
:101F0000118683F31188BFF36F8FFFF7EBFF0D4C42
:101F10002568294605F090FA0B4BA3FB0023C01A55
:101F200003EB5000000A40F2471303FB0055256005
:101F300086F31188BFF36F8F04F00CFA70BD00BFF9
:101F4000001001408C35002021F1D49030B583B0D1
:101F50001D4803F04DFA002833D042681268012171
:101F600090471A4D0024C5F8084540F24713C5F8BC
:101F700040354FF48033C5F84433C5F8043303F1DA
:101F8000804303F58A531C601B680193019B104B2F
:101F90004FF40032C3F8802122460121112001F0C4
:101FA000A7F8112001F080F801230A4A13602B6082
:101FB000FFF798FF00F24710FFF78CFF204603B0B1
:101FC00030BD4FF0FF30FAE758B600000010014076
:101FD00000E100E0081001402DE9F041B0F1FF3FC1
:101FE00038D00138002838DD4CF669048442A8BF97
:101FF00004464FF02003EFF3118583F31188BFF3FC
:102000006F8FFFF76FFF064640F2471707FB04F498
:10201000134BD3F80080414605F00EFA204400F53A
:10202000A373104CA4FB03241B1B04EB5304240ACE
:1020300007FB04843146204605F0FEF91F2800D82E
:102040003C442046FFF746FF85F31188BFF36F8FAE
:10205000BDE8F0814CF66900C3E70024C9E700BF82
:102060008C35002021F1D49010B54FF02003EFF310
:10207000118483F31188BFF36F8FFFF733FF084B91
:10208000196805F0D9F9074BA3FB0023C01A03EB2D
:102090005000000A84F31188BFF36F8F10BD00BF9A
:1020A0008C35002021F1D49038B54FF02003EFF3A8
:1020B000118583F31188BFF36F8FFFF713FF054B73
:1020C0001C68214605F0B8F9204485F31188BFF358
:1020D0006F8F38BD8C35002010B44FF02003EFF324
:1020E000118183F31188BFF36F8F184B1B685BB1AD
:1020F000174A5268934207D000221A60144A526865
:10210000C2B11360124A5360124B1B682BB11C689A
:10211000104A14605268934210D081F31188BFF3C3
:102120006F8F73B1094A136003F1080202605868A7
:1021300010BC7047064A53601360E5E7054A5460D7
:10214000EBE7024A136003601846F1E79C35002074
:1021500090350020B039002000B583B0354B1868A9
:1021600043685B6C03B19847324B186843685B6BFC
:102170000BB1984738BB03B05DF804FB2E4B1B68CE
:1021800043B119682C4A11605268934214D02B4A0B
:10219000136028E04FF00000012363F302006FF3A7
:1021A000C500274B274A9B1AC3F3C90363F38F105B
:1021B000254905F03DF8DEE71F4A5160E7E79DF845
:1021C00007300A2B1ED01B4B186843689B69002BF5
:1021D000D1D001220DF1070198470128CBD1174B2F
:1021E0001B68002BCAD0194B1B88B3F5007FE6D2C1
:1021F000124A1268581C1549088013449DF807209C
:102200001A72DCE70D4B1B68104A12885A600022D4
:102210001A600F4A526842B113600D4A536000239E
:102220000A4A1380054A1360CDE7094A53601360D8
:10223000F5E700BFB8390020903500209835002020
:10224000F4AF0000CCAF00007CB60000A840002036
:10225000B039002000B583B0194803F0C9F8194B14
:102260001860002829D0436823B19B6C13B1024643
:1022700015499847134B186843685B6B63B19847DF
:1022800050B1104B186843689B692BB101220DF1C6
:10229000070198470028F4D10C4B00221A80094B03
:1022A000186843689B6A03B19847002080F311883F
:1022B000BFF36F8F03B05DF804FB4FF0FF30F9E719
:1022C00038B60000B839002059210000A84000208D
:1022D00010B50446034B186843685B68E1B2984741
:1022E000204610BDB839002010B5104A00231360F5
:1022F00053600F4A1360536003E00C494A600A6060
:102300000133012B0ED80B489A011A44D100421810
:1023100000244450054949680029EED00A60034969
:102320004A60EDE7FFF796FF10BD00BF9035002033
:10233000B0390020A035002070B4012302E003EB87
:1023400083025300B1FBF3F2092AF8D804460025B2
:1023500003E0303222700135013473B1B1FBF3F286
:1023600003FB1211074EA6FB0363DB08002DF0D11F
:10237000002AEED1002BF0D1EBE72370201A70BCBD
:10238000704700BFCDCCCCCC38B543689C18502CDE
:102390000AD8154604460648184405F077F96268DD
:1023A0002A446260002038BD4FF00040FBE700BFC8
:1023B000C43900202DE9F047B6B04C4B1B88ADF86E
:1023C000D0304B4BD3F80480DFF83CA1DAF80000A2
:1023D00003780133037000254570C8F3072343EAEF
:1023E000082343808288130A43EA022383800095EE
:1023F0002B4641F22102082104F078FA0346ADF899
:10240000D600DFF808910122009241F221024146F4
:10241000484604F06BFA030A43EA0020ADF8D60000
:10242000344F3B685B68022134A898471FFA88F450
:1024300004F10A039BB21A0A42EA032336A921F8DF
:10244000043D022220A805F021F90226ADF8D4604F
:102450000822DAF800100DF1820005F017F9BDF836
:10246000D400083080B2ADF8D4004246494620ABD3
:10247000184405F00BF9BDF8D400204480B2ADF843
:10248000D40032460DF1D60120AB184405F0FEF819
:10249000BDF8D43033449BB2ADF8D430009320ABB8
:1024A00003AA6D2104A8FEF783FEBDF80C10ADF859
:1024B000D4103B685B6804A898473B685B6831466A
:1024C0000D4898474FF00000032363F3020065F3C3
:1024D000C5000A4B0A4A9B1AC3F3C90363F38F1062
:1024E000084904F0A5FE36B0BDE8F08704B000004E
:1024F00078810020BC390020B8B60000DCAF0000B5
:10250000CCAF0000BCB60000C0390020C4390020A8
:1025100070B50E4C0E4D4FF0FF322146284602F0AA
:1025200019FF0C4E304605F086F80246314620462B
:1025300007F034FE00220023204607F0DBFD214691
:10254000284607F038FEFFF735FF70BD383A002007
:10255000143A0020C0B6000030B5B1B03D4C4FF089
:10256000FF3221463C4802F0F5FE3C4D284605F07E
:1025700062F802462946204607F010FE4FF0FF326F
:1025800027A9204607F012FE002403E0059804F076
:10259000C1FE0134012C50DC2046FEF75DF805A990
:1025A000C0B2FFF7DBF90028F3D1202316AA0021DF
:1025B000059804F0B0FE169A294B9A42E6D1002302
:1025C000029301930093402306AA059916A8FEF7EB
:1025D00083FC0028DAD1059804F09CFE4FF0FF320E
:1025E0001EA927A802F0B6FE1E4D284605F023F8C6
:1025F000024629461EA807F0D1FD2246E3171EA871
:1026000007F078FD184D284605F015F802462946D2
:102610001EA807F0C3FD1BAA402106A804F03BFF3B
:1026200006A805F008F8024606A91EA807F0B6FDA0
:102630001EA927A807F0BFFDABE7064C27A9204637
:1026400007F0B9FD2146044807F0B5FDFFF7B2FEDB
:1026500031B030BD383A0020143A0020C4B6000032
:102660003DB8F3966CB10000CCB600002DE9F04304
:10267000ADF5277D05460E46002403944FF4007205
:10268000214607A805F026F83246294691A802F00F
:1026900041FE8CAB9AAA214691A807F0D7FF9DF87E
:1026A0004232802B3ED0A02B3AD00023002B3BD1CE
:1026B00003244FF00000032363F302006FF3C5000F
:1026C000724B734A9B1AC3F3C90363F38F102246FC
:1026D000704904F0ADFD704D4FF0FF3229466F4850
:1026E00002F038FE6E4E304604F0A5FF0246314639
:1026F000284607F053FD2246E317284607F0FAFC68
:10270000002C00F0EC816449644807F054FDFFF7A9
:1027100051FE039804F0FEFD0DF5277DBDE8F08322
:102720000123C3E70123C1E787A98CA807F09CFF19
:10273000002840F0B6814FF0FF384FF000094646C0
:102740004F46002521E0574904A804F07DFF0028EA
:1027500064D19DF82E32002B40F0B5819DF82F32C8
:1027600013F0010F56D1BDF82C02002106460F468A
:102770009DF82F3213F0020F01D0C643CF4387A834
:1027800008F006F8002840F0A0819DF82E32FF2BBB
:1027900073D00123002B72D006A987A808F002F895
:1027A000002840F080819DF82E32602B40F07D8122
:1027B000069B062B00F27B8187AB06AA04A918466C
:1027C00002F0D8FD002840F07481069B04A8002286
:1027D000C254354904F038FF0028B4D19DF82E3298
:1027E000402B40F0688106A987A807F0DBFF00288E
:1027F00040F06381069BB3F5007F80F0608187AB7A
:1028000006AA07A9184602F0B5FD002840F0598134
:10281000069DBAE787A807F000FFA7E7234904A8A9
:1028200004F012FF10BB9DF82E32002B40F04F81B8
:102830009DF82F3213F0010F14D1BDF82C020021A6
:10284000804689469DF82F3213F0020F03D06FEABD
:1028500000086FEA010987A807F09AFF002894D0C2
:10286000032426E787A807F0D8FEE9E787A807F042
:102870008FFF002889D003241BE700238AE7002F5D
:1028800008BFB6F1FF3F13D1032412E7DCAF00000D
:10289000CCAF0000A0B70000383A0020143A002066
:1028A000C0B60000DCB60000D4B60000E0B6000000
:1028B0000020FDF7D1FE03A9C0B2FFF74FF8044690
:1028C000002840F0068156EA07030DD18C4B002208
:1028D0001A60039B9A680023424573EB0903C0F218
:1028E000FA80884BC3F80080854B1B680021B942F1
:1028F00008BFB3427FF4DDAE2B44824A1268934294
:10290000C0F08C807E4B186801A92844FDF7B0FE0A
:102910000446002840F09080019A7B4B1B689A4245
:102920001BD0794B1A604FF00000032363F30200C1
:102930006FF3C500754E764B9B1BC3F3C90363F35E
:102940008F10744904F074FC029A0199039804F002
:1029500031FD0446002840F081804FF00000032341
:1029600063F302006FF3C500684E694B9B1BC3F312
:10297000C90363F38F10624C22685319664904F04F
:1029800057FC2B4607AA2168039804F0E3FC044691
:10299000002840F0A2805A4B1A6815441D60594B1C
:1029A0001B689D427FF485AE039803F067FE01A982
:1029B000FDF75EFE0446002862D1019A524B1B6867
:1029C0009A427FF776AE4FF00000032363F30200D4
:1029D0006FF3C5004E4B9B1BC3F3C90363F38F100A
:1029E0004C4904F025FC029A0199039804F0E2FC9A
:1029F000044600283FF45DAE4FF00000012363F36E
:102A000002006FF3C500424B9B1BC3F3C90363F382
:102A10008F102246414904F00BFC4AE6039804F06B
:102A2000F7FCB5FBF0F300FB135313F0FF0F3FF47B
:102A300069AFDBB2ED1A65E74FF00000012363F3E5
:102A400002006FF3C500324B304A9B1AC3F3C9032F
:102A500063F38F10324904F0EBFB2AE64FF00000DD
:102A6000012363F302006FF3C500294B9B1BC3F3E3
:102A7000C90363F38F102246284904F0D9FB18E6F6
:102A80004FF00000012363F302006FF3C500204BF9
:102A90009B1BC3F3C90363F38F10224904F0C8FBE7
:102AA00007E6032405E6032403E6032401E60324E2
:102AB000FFE50324FDE50324FBE50324F9E50324F6
:102AC000F7E50324F5E50324F3E50324F1E5032406
:102AD000EFE50324EDE50324EBE50324E9E5124DDE
:102AE000284604F0A8FD114C02462946204607F06E
:102AF00055FB034B1A680023204607F0BBFA02E699
:102B00005C3A0020643C002080810020CCAF0000B3
:102B1000DCAF00000CB700004CB700002CB7000081
:102B2000E4B6000068B70000DCB60000383A0020C8
:102B3000072903D9037813B1022B00D0704770B571
:102B40004288130A43EA02239BB2A1F10804A3427C
:102B500000D270BD05461B4B18608288130A43EAF9
:102B60000223838000F10806174900224A601748B3
:102B700007F07BFAAB88012B0BD0002BE9D1EB7966
:102B8000012B19D0052BE4D12146304604F0D8FCA6
:102B9000DFE7EB7933B1012B09D021463046FFF74F
:102BA000B7FCD6E721463046FFF7D6FCD1E72146F1
:102BB0003046FFF75BFDCCE721463046FFF7A8FC27
:102BC000C7E700BFC039002078810020143A0020F8
:102BD00030B585B00546244B186000241BE0029BED
:102BE0001BBB18E040F20123994214D00C4612E0BE
:102BF0001E4A5278092A20D104AB002243F8042D42
:102C000040F2012200921A4A02391A4804F05FFC8D
:102C1000012822D000242B6802AAC4F500710131DA
:102C20001248204498470028D9DD2118029C002C26
:102C3000D8D00E4B1B78062BDAD0042BE8D10B4BE7
:102C40005B78142BE4D140F20123009303AB084AD4
:102C50000239084804F03BFCDAE7039902390648D8
:102C6000FFF766FF0024D6E7BC390020683C00204F
:102C7000603A00206A3C0020623A002004488168E3
:102C8000006A884203D003494FF080520A607047BF
:102C9000F03F002004ED00E000220AE053B2002BD8
:102CA0000ADB03F1604303F56143202183F800133D
:102CB00001322F2AF2DD704702F00F01024B0B4464
:102CC00020211976F4E700BFFCEC00E0094A936884
:102CD000586609490968996608494B6843F080536A
:102CE0004B60002383F31188BFF36F8F9368986E56
:102CF000704700BFF03F002060BE000000ED00E024
:102D0000202080F31188BFF36F8F11498A684FF03C
:102D100028001044EFF3098C80E8F01F0D4F4FF0AE
:102D200000660A6A8A603E60506E0023536680F334
:102D3000118804B50648806804F03FFCBDE80440F3
:102D400002F1280090E8F01F8CF30988704700001A
:102D5000F03F002004ED00E01EF0040F0CBFEFF385
:102D60000880EFF30980816931F8021C11F0FF013E
:102D70000229FFD001B504F014FC01BD38B50446AA
:102D80000D46264804F039FA254B9B6A13F0100FC4
:102D90001ED1234B9B6A13F0080F1DD1204B9B6A59
:102DA00013F0020F1CD11E4B9B6A13F0010F2BD1A5
:102DB0001B4B9B6A13F0200F2AD1194B9A6A9A6A0F
:102DC00042F0FF029A62204604F0C4FB20BB38BDEB
:102DD000144804F012FADCE7134804F00EFADDE7B9
:102DE000124804F00AFA0E4B596B9B6A13F0800FDD
:102DF000D9D00F4804F001FA002DD4D0084A936AC4
:102E000023F080039362CEE70A4804F0F6F9CFE797
:102E1000094804F0F2F9D0E70620D8E7D8B8000056
:102E200000ED00E0F0B8000024B9000038B900005F
:102E300054B900006CB900008CB9000038B50446E4
:102E40000D462A4804F0D9F9294B9B6A13F4805F98
:102E500023D1274B9B6A13F4006F22D1244B9B6A2A
:102E600013F4007F21D1224B9B6A13F4806F30D181
:102E70001F4B9B6A13F4807F2FD11D4B9B6A13F469
:102E8000005F2ED11A4A936A43F47F43936220462F
:102E900004F060FB00B1062038BD164804F0ADF91F
:102EA000D7E7154804F0A9F9D8E7144804F0A5F9C4
:102EB0000F4B996B9B6A13F4004FD4D0104804F069
:102EC0009CF9002DCFD00A4A936A23F40043936201
:102ED000C9E70C4804F091F9CAE70B4804F08DF9F2
:102EE000D0E70A4804F089F9CCE700BFACB700008E
:102EF00000ED00E0C4B7000024B90000D8B700001E
:102F0000F4B700000CB8000028B800008CB900002D
:102F100008B5214804F071F9204B9B6A13F0007F3B
:102F200021D11E4B9B6A13F0807F20D11B4B9B6AE3
:102F300013F4002F1FD1194B9B6A13F4802F1ED15D
:102F4000164B9B6A13F4003F1DD1144B9B6A13F47C
:102F5000803F1CD1114A936A6FEA03436FEA13431F
:102F60009362002008BD0E4804F047F9D9E70D48E8
:102F700004F043F9DAE70C4804F03FF9DBE70B48CB
:102F800004F03BF9DCE70A4804F037F9DDE70948CB
:102F900004F033F9DEE700BF04BA000000ED00E002
:102FA00020BA000034BA000050BA000070BA000025
:102FB00098BA0000B4BA000010B50446184804F0EE
:102FC0001CF9184BDB6A13F0020F06D1154BDB6AB4
:102FD00013F0804F06D1002010BD134804F00DF906
:102FE0000020F9E7114804F008F9114B1B7843B9A8
:102FF000104B1B7853B9104B1B889BB25BB9002058
:10300000EAE701212046FFF7B9FEE5E70121204666
:10301000FFF714FFE0E72046FFF77AFFDCE700BF89
:103020007CB8000000ED00E094B80000B8B80000E3
:1030300028ED00E029ED00E02AED00E008B50248A7
:1030400004F0DBF808BD00BF44B8000008B50A462C
:103050000F2905DD0349103A034804F0CEF808BDF6
:103060000249F8E7D4B90000F0B90000BCB900008B
:1030700038B50546074B5C68C4F30804FEF718FC36
:103080002146284604F068FA062802D0294600F0B6
:103090008FF838BD00ED00E0024A536943F0100399
:1030A0005361704700ED00E043B2002B08DB00F0F5
:1030B0001F005B09012202FA00F0024A42F82300D5
:1030C000704700BF00E100E043B2002B0DDB00F0D1
:1030D0001F005B09012202FA00F02033034A42F884
:1030E0002300BFF34F8FBFF36F8F704700E100E005
:1030F000013143B2002B08DB4901C9B203F160433F
:1031000003F5614383F80013704700F00F00490195
:10311000C9B2014B1954704714ED00E02DE9F0419C
:103120000546884617461E468C180A9B04220999B4
:1031300007F07BFD0022EA642A65C5F85880EF6538
:10314000A4F1200323F00703084921F0010199614C
:103150001E6006995960079999600899D9604FF0E7
:103160008071D961AB646A66BDE8F081056E0000CC
:10317000014910220A60704710ED00E0404080F3E2
:10318000118830BF704700BF404080F31188DFF8DE
:103190001CC0DCF800C01CF4006C0CBFEFF308800E
:1031A000EFF3098001B5FFF763FF01BD04ED00E017
:1031B00038B504460D46FEF77BFB052C1FD8DFE82B
:1031C00004F0031E1E12161A0F4804F016F802F03F
:1031D00001FFAA6901460D4804F00FF82946204670
:1031E00000F01EF838BD0A4804F007F8EFE7094878
:1031F00004F003F8EBE7084803F0FFFFE7E7214698
:10320000064803F0FAFFE2E7E0BA000084BB0000E2
:1032100000BB000028BB000044BB000060BB0000F6
:1032200010B5052802D1FFF7A9FFFCE702F026FF41
:1032300010B902F037FF48B102F020FF20B1084971
:10324000084803F0DAFFEEE70749F9E7074CA16801
:10325000074803F0D2FFA06800F00CF810BD00BFD3
:10326000C0BB0000D8BB0000C4BB0000F03F002082
:10327000F8BB000038B505464FF02003EFF311848A
:1032800083F31188BFF36F8F07F0A8FC0A4B9B688C
:10329000AB4209D1094B5B68C3F3080343B1074A4A
:1032A000536843F080535360204602F0A7FB38BDBB
:1032B0002046FFF70BFD00BFF03F002000ED00E0CF
:1032C00001B5EFF30580A0F110004FEAC0000449FA
:1032D000014409C99847BDE8014002480047000081
:1032E00098AD00007D2C0000202080F31188084854
:1032F0004FF40061401880F30988EFF31480022135
:10330000084380F31488BFF36F8F00F007F80000C4
:10331000F869002030BFFFF7FDBF00BF08B5084BBC
:1033200023F07F03074A9360BFF34F8FBFF36F8F84
:1033300002F00CF902F016F9FFF7AEFC02F040F9CA
:103340000000000000ED00E000B585B0084B0193DF
:10335000084B0293084B039304A801AB40F8103DBF
:10336000064B074A012104F05EF905B05DF804FB45
:10337000000000200000000000000B0600000420F8
:1033800000000020064A90600B6823F01F030343EF
:1033900043F01003D3608B6843F00103136170475F
:1033A00090ED00E010B5072804D80446FFF7EAFFC7
:1033B000204610BD4FF00004012363F302046FF3B5
:1033C000C504074B074A9B1AC3F3C90363F38F1461
:1033D00002460549204603F02BFF6FF01504E7E78E
:1033E000E4AF0000CCAF000048BC00002DE9F8437A
:1033F00080460F4699461546002409E03146E8B25A
:1034000004F0F2F8054610F1160F22D00135013410
:10341000BC421EDA58F824607368002BF7D0B9F16B
:10342000000FEBD0304604F0CEF80028E6D101239F
:1034300063F302006FF3C500074B084A9B1AC3F3FE
:10344000C90363F38F102246054903F0F1FE6FF0C4
:1034500015052846BDE8F883E4AF0000CCAF0000B6
:1034600024BC000010B5034C01232278FFF7BEFFF7
:10347000207010BDB040002008B50023084A127823
:10348000FFF7B4FF10F1160F08D0034604E0054A19
:103490009360002111610133072BF8DD08BD00BFE7
:1034A000B040002090ED00E0034B05225A60BFF3CE
:1034B0004F8FBFF36F8F704790ED00E0BFF35F8FCA
:1034C000014B00225A60704790ED00E038B50E4B7A
:1034D0001D68082D15D8FFF7F1FF002409E00A4BFD
:1034E000596804EB4402930019442046FFF74AFF51
:1034F0000134A542F3D8054B1D70FFF7D5FF00201E
:1035000038BD4FF0FF30FBE774B50000B04000203D
:103510000268124B9A4201D001207047C269A3F1A0
:103520001023A3F1EF139A4201D001207047836862
:10353000012B01D901207047C36813B1026993427E
:1035400006D0436933B18269934205D000207047A9
:1035500001207047002070470120704755AA00FFE6
:1035600070B5104B9D68A5B12846FFF7D1FF064600
:1035700088B9EB680BB101260EE02C6964B12046D6
:10358000FFF7C6FF50B9E368AB4209D1254624696D
:10359000F4E7012600E00126304670BD0126FBE776
:1035A0000126F9E76C3E0020002800F0948038B531
:1035B0000446494B1B68002B68D0474A9268002A92
:1035C00064D0834263D9454B1B6801209847A4F11E
:1035D00020052846FFF79CFF18B1404B1B680120CF
:1035E000984754F8183C012B03D03C4B1B68012032
:1035F0009847002344F8183C54F8143CCBB19A681F
:10360000002A4AD154F81C2C59680A4420325A60C6
:1036100054F8143C54F8102C1A6154F8144C2369D3
:1036200003B1DC6020220021284604F053F82B4629
:1036300025462C6924B3A26812BB63686A681344E8
:1036400020336B6023692B616B6943B3002B2AD055
:10365000AA699A61AB690BB16A695A6163696B6166
:10366000A269AA611BB39D61AB6903B15D612B695E
:1036700003B1DD6020220021204604F02BF8234610
:10368000C3B1154B1B6913F0020F1BD138BD124A91
:103690005268134483429AD895E70023C9E7AA6980
:1036A000002AD3D1DAE7AA690B4BDA60D2E70A4BDA
:1036B000DD60D9E7084BDB68AB6103B15D61064BA8
:1036C000DD60DEE7FFF74CFF0028DFD0034B1B680F
:1036D00001209847DAE770476C3E0020888100207F
:1036E00070B5514BDC681B68002B00F08F804E4B8F
:1036F0009B68002B00F08C8001FB00F6002800F096
:103700008980002900F08880B6FBF0F0884240F004
:10371000858016F1040F00F2838016F0030F08D0A5
:1037200026F00305043534B16368AB4203D2A469C3
:10373000F9E73546F7E7002C74D0A3681BB13B4B83
:103740001B68012098476268521B232A26D8012350
:10375000A3606369ABB1A2699A61A3690BB16269A5
:103760005A6100236361A3612F4B1B6913F0010FA2
:103770000BD1203432460021204603F0ABFF204617
:1037800070BDA269284BDA60E7E7FFF7E9FE002881
:10379000EFD0264B1B6801209847EAE705F120018E
:1037A0006318203A5A6000229A60DC6022691A612C
:1037B0001F4860501F49D96102B1D36062695A61E4
:1037C000A1699961B2B193619A6902B15361012211
:1037D000A2606560236100236361A361124B1B69D2
:1037E00013F0010F09D1203432460021204603F0A6
:1037F00071FFC4E70C4AD360E6E7FFF7B1FE00288B
:10380000F1D00A4B1B6801209847ECE70024B6E78B
:103810000024B4E70024B2E70024B0E70024AEE7B8
:103820000024ACE70024AAE76C3E00208881002039
:1038300055AA00FF669911EE38B505460C461422CC
:103840000021134803F046FF1249134800F038F8EE
:10385000232C1CD915F0030304D01C44043CC3F1F1
:1038600004031D4422460021284603F033FF084B81
:103870001D605C609D60203C6C609A680749116027
:103880009A68A1F11021A1F1EF11D161DA6038BD80
:103890006C3E0020A9350000E136000055AA00FF6B
:1038A00008B5024B1B68984708BD00BF8481002003
:1038B00008B5024B1B68984708BD00BF8C810020EB
:1038C000024B1860024B1960002070478481002071
:1038D0008C81002008B5034B1B680A4600219847DD
:1038E00008BD00BF90810020F8B504460D4647682A
:1038F00000F10806304604F074FA874251D163683B
:10390000B3F5807F4FD80021304604F06FFC0028CB
:103910004BDD0021304604F03DFA002847D0D5B1F8
:1039200004F12C060021304604F060FC002840DD44
:103930000021304604F02EFA00283CD004F138066D
:103940000021304604F052FC002836DD00213046CC
:1039500004F020FA98B3002104F1140004F046FCAE
:1039600000282EDD15B98DB92846F8BD002104F1D7
:10397000440004F03BFC002825DD002104F1500048
:1039800004F034FC0028EEDC104DEDE7002104F1DA
:103990005C0004F02BFC002801DD0025E4E70B4D62
:1039A000E2E70A4DE0E7094DDEE7084DDCE7074DA9
:1039B000DAE7064DD8E7054DD6E7044DD4E7034DC9
:1039C000D2E7024DD0E7014DCEE700BF80BFFFFF39
:1039D00070B5044600221146FFF786FFD0B90646AF
:1039E00004F10805284604F0E5F97F2814D91434B9
:1039F0000021204604F0CEF980B1204604F0DAF927
:103A000001280DD92946204604F0A8FB002809DA30
:103A1000304670BD044EFBE7034EF9E7024EF7E770
:103A2000014EF5E7004EF3E700BEFFFFF0B587B0AB
:103A300005460C46164600221146FFF755FF90BB7F
:103A400003A804F015F96A68214603A804F0CFF929
:103A5000044640B103A804F011F90CB1A4F5854463
:103A6000204607B0F0BD05F10804214603A804F084
:103A700075FB002802DB6FF00304EBE76F6805F1CC
:103A800068030093234605F1140203A9084604F0D5
:103A900025FF04460028DDD13A46314603A804F04C
:103AA000D8F90446D6E7014CDAE700BF80BFFFFF34
:103AB0000023036043600B46E1B1194A8260194A52
:103AC000C26002F1794202F5740202F501620261FC
:103AD000154A4261154A826102F1D14202F5C012D3
:103AE00002F51E62C261124A0262124A4262836693
:103AF00000207047104A8260104AC260104A02617A
:103B0000104A4261104A8261104AC261104A026240
:103B100002F17452A2F52302A2F692424262E6E753
:103B2000D89E05C107D57C3639590EF7310BC0FF39
:103B3000A78FF964A44FFABE67E6096A85AE67BB32
:103B400072F36E3C3AF54FA57F520E518C68059B7F
:103B5000ABD9831F2DE9F04FD1B00790002306E0C9
:103B60009A1C50F8222008AC44F823200133072B7C
:103B7000F6D9002010E011F8204001EB80025378C4
:103B80001B0443EA0463947843EA0423D278134382
:103B900010AA42F8203001300F28ECD94FF0000E67
:103BA00042E10F9B0C9E4FEAF62181EAB61181EAB1
:103BB000766119440E9C0D9884EA000333406340FB
:103BC0001944DFF8348758F82E3019440DF1400CB1
:103BD0005CF82E301944089D4FEA753A8AEAB50A16
:103BE0008AEAB55A099F05EA07030A9A45EA0709CE
:103BF00002EA090943EA09039A440B9B01EB030912
:103C000051444FEAF92383EAB91383EA79631C44E8
:103C100086EA000309EA030343401C440EF1010A4B
:103C200058F82A301C445CF82A301C444FEA71339F
:103C300083EAB10383EAB15305EA010A45EA010BBD
:103C400007EA0B0B4AEA0B0A534422441C444FEA8E
:103C5000F22383EAB21383EA7263184486EA090303
:103C60001340734018440EF1020A58F82A301844E1
:103C70005CF82A3018444FEA743383EAB40383EAC9
:103C8000B45301EA040A41EA040B05EA0B0B4AEAC1
:103C90000B0A5344074418444FEAF72383EAB71347
:103CA00083EA77631E4489EA02033B4089EA0303FF
:103CB0001E440EF1030A58F82A301E445CF82A30DC
:103CC0001E444FEA703383EAB00383EAB05304EA38
:103CD000000A44EA000B01EA0B0B4AEA0B0A5344C0
:103CE00035441E444FEAF52383EAB51383EA75632E
:103CF000994482EA07032B40534099440EF1040A89
:103D000058F82A304B445CF82A904B444FEA7639F5
:103D100089EAB60989EAB65900EA060A40EA060BBA
:103D200004EA0B0B4AEA0B0AD14419440F914B44A5
:103D30000B934FEAF12989EAB11989EA71694A447A
:103D400087EA050901EA090987EA090991440EF1A0
:103D5000050A58F82A204A445CF82A904A444FEA57
:103D6000733A8AEAB30A8AEAB35A06EA030946EAC8
:103D7000030B00EA0B0B49EA0B09CA4404EB0209E6
:103D8000CDF8389052440A924FEAF92484EAB914E3
:103D900084EA7964274485EA010409EA04046C4052
:103DA0003C440EF1060A58F82A703C445CF82A702C
:103DB0003C444FEA723787EAB20787EAB25703EA10
:103DC000020A43EA020B06EA0B0B4AEA0B0A5744C3
:103DD00020440D903C4409944FEAF02787EAB0173D
:103DE00087EA70673D4481EA090900EA090981EA26
:103DF000090129440EF1070058F8205029445CF8C5
:103E0000200001444FEA743080EAB40080EAB450E4
:103E100002EA0405224313402B4303440E440C964C
:103E20000B4408930EF1080EBEF10F0F7FF6B9AEEA
:103E300010264BE20F9A0C9B4FEAF32787EAB31741
:103E400087EA73673A440E980D9D80EA05071F4084
:103E500047403A44DFF8A0B45BF826701744B31E1D
:103E60001A4610AB049253F822204FEAF24484EA37
:103E7000724484EA9224F21F53F822201444A6F1DB
:103E80000F0A53F82AC04FEABC4282EAFC1282EAC7
:103E9000DC021444A6F1100253F82220224443F815
:103EA00026203A4408994FEA713C8CEAB10C8CEA1E
:103EB000B15E099F3C460C400A990091089941EA7D
:103EC000070C009901EA0C0C44EA0C0CF4440B9C1E
:103ED000144462444FEAF42888EAB41888EA746803
:103EE00080440C9981EA050904EA090985EA09096F
:103EF000C844711C5BF821008044701E059053F883
:103F000020004FEAF04C8CEA704C8CEA902CB01FE9
:103F100053F820008444A6F10E0E53F82E904FEA79
:103F2000B94080EAF91080EAD900604453F82A9039
:103F30004844029143F8210008EB00094FEA723827
:103F400088EAB20888EAB258089901EA020041EA10
:103F5000020C019707EA0C0C40EA0C0CC4440098D0
:103F600000EB0908E1444FEAF82080EAB81080EA43
:103F7000786005440C9981EA040008EA0000484092
:103F80000544B01C01465BF82000054453F82600A8
:103F90004FEAF04C8CEA704C8CEA902C701F53F86E
:103FA00020008444A6F10D0A53F82A004FEAB040DD
:103FB00053F82A7080EAF71080EAD700604453F87B
:103FC0002EC06044039143F8210005444FEA793C38
:103FD0008CEAB90C8CEAB95C02EA090042EA090EE3
:103FE000089901EA0E0E40EA0E008444019F07EB97
:103FF000050E05EB0C0700974FEAFE2080EABE1085
:1040000080EA7E600C990D1884EA08010EEA01012D
:1040100061406818F71C5BF827100144029D53F8B3
:1040200025004FEAF04585EA704585EA9025301F66
:1040300053F8200005440195A6F10C0C53F82C0010
:104040004FEAB04053F82C5080EAF51080EAD500D2
:10405000019D284453F82A502844069743F8270026
:10406000014400984FEA7035074685EAB00585EAB5
:10407000B05509EA000049EA070A02EA0A0A40EADA
:104080000A000544089800EB010A294401914FEA0F
:10409000FA2585EABA1585EA7A652C4488EA0E0580
:1040A0000AEA050588EA05052544341D02945BF8F3
:1040B00024000544039953F821404FEAF44080EA74
:1040C000744080EA9420F41E53F824402044A6F162
:1040D0000B0753F827104FEAB14484EAF11484EA3D
:1040E000D104044453F82C002044029943F82100E1
:1040F000054401994FEA713C8CEAB10C8CEAB15C41
:10410000009804460C4001460198084309EA000063
:10411000204360442A440F9228440B904FEAF22C2B
:104120008CEAB21C8CEA726CC4448EEA0A080392D0
:1041300002EA08088EEA0808C444741D21465BF8A8
:104140002440A444069D53F825504FEAF54484EAE0
:10415000754484EA9524049A53F822502C44A6F11D
:104160000A0853F828204FEAB24585EAF21585EA95
:10417000D205254453F827402C44049143F82140AC
:1041800064444FEA703787EAB00787EAB05701996D
:1041900001EA000541EA000C009901EA0C0C45EA2D
:1041A0000C052F4409EB040CCDF838C03C440A94AC
:1041B0004FEAFC2787EABC1787EA7C677744039DB0
:1041C0008AEA050E0CEA0E0E8AEA0E0E774406F114
:1041D00006095BF829502F44029D53F825504FEAF9
:1041E000F54E8EEA754E8EEA952E059A53F82250BA
:1041F000AE44A6F10902029253F8225029464FEA32
:10420000B54585EAF11585EAD105754453F828E0EE
:10421000754443F829502F444FEA743585EAB405B4
:1042200085EAB45500EA040940EA040E019A02EA5C
:104230000E0E49EA0E09A9440099CD190D954F4477
:1042400009974FEAF52E8EEAB51E8EEA756ED644B2
:10425000039A82EA0C0C05EA0C0C82EA0C02724406
:1042600006F107085BF8285002EB050E049953F895
:1042700021504FEAF54282EA754282EA952253F8CC
:1042800026100A44A6F1080553F825C04FEABC459C
:1042900085EAFC1585EADC052A44029D53F8255081
:1042A0002A4443F8282072444FEA773383EAB7035D
:1042B00083EAB75304EA07052743384028431844E4
:1042C000019911440C911044089008363F2E7FF656
:1042D000B1AD0021079809E008AB53F821408A1CD2
:1042E00050F82230234440F8223001310729F3D915
:1042F000002051B0BDE8F08F70BC000008B50B4B3A
:10430000BFF35B8F53E8002F42F0010143E8001038
:104310000028F7D1BFF35B8F12F0010F00D008BD6A
:10432000A3F10801024806F016FBF8E79C81002083
:1043300028400020044B1B6823B15A89824201D0D7
:104340001B68F9E718467047803E002070B50546A7
:104350000E460A4C204603F06EF9024621462846D6
:1043600005F01CFF034608B1184670BD3246F3172E
:10437000284605F0BFFE0346F6E700BFC0B60000C2
:1043800008B50021014805F071FB08BDDC82002062
:10439000084B0360084B4360084B8360084BC360C5
:1043A000084B0361084B4361084B836101628B89B1
:1043B000C36170474D9400003795000001950000DF
:1043C000C59400009B9400006F9400006794000067
:1043D000816000234360014B0360704771950000CA
:1043E00000B593B0074B0193029009AB039306AB62
:1043F0000493054B059301A804F0C4FF13B05DF8C6
:1044000004FB00BF80BD000027960000F8B50446FD
:104410000F4616461D462C22002103F05BF9E7618A
:1044200026626562069BA362034B636004F10C0085
:1044300006F089FAF8BD00BFE996000010B5044601
:104440000C3006F088FA04F10803BFF35B8F53E8E1
:10445000002F42F0010143E800100028F7D1BFF31C
:104460005B8F12F0010F00D010BD2146014806F00D
:1044700072FAF9E72840002038B50446D0F88420C5
:10448000011D064805F0C7F905462046FDF70CFB5F
:104490001DB129460248FFF7D1FF38BD843E0020F8
:1044A0008C3E002008B502E01846FFF7E5FF00212A
:1044B000034801F001FA03460028F5D108BD00BF0A
:1044C000CC82002010B582B0002400942346054A17
:1044D00005490648FFF79AFF0548FDF767FB2046A8
:1044E00002B010BD079700000D9700008C3E002021
:1044F000F544000008B501460C4806F02CFA0C4BB8
:10450000BFF35B8F53E8002F42F0010143E8001036
:104510000028F7D1BFF35B8F12F0010F00D008BD68
:10452000A3F10801034806F016FAF8E7CC82002050
:10453000A8810020284000202DE9F04383B0804668
:10454000164699460A9F0D4639B340F60613ADF854
:1045500002300B9A02210DEB0100B84704460028F7
:1045600040F08980F5B902257B2D7BDC331B34D0EC
:10457000012B42D0022B54D0032208EB040101A8E6
:1045800003F084F80B9B3A46032101A805F032F9A9
:10459000002876D103340435E6E741F20443ADF850
:1045A0000230D6E7C6F3072343EA062302A921F81F
:1045B000063D022201A803F069F898F800308DF852
:1045C00006300B9B3A46032101A805F013F9044677
:1045D000002850D101240625C6E74FEA19238DF89B
:1045E00004308DF805900B9B3A46022101A805F096
:1045F00001F9002843D1254635E018F804308DF83C
:104600000430651C4FEA19238DF805308DF80690AB
:104610000B9B3A46032101A805F0ECF8044610B3C1
:1046200029E018F804308DF80430A04498F80130DF
:104630008DF80530A51C4FEA19238DF806300B9B29
:104640003A46032101A805F0D5F8044698B902A816
:1046500000F8049D0B9B3A46012105F0CBF8044677
:1046600008B108E025460B9A01210748B8470446DF
:1046700008B90C9B1D60204603B0BDE8F0830446DA
:10468000F9E70446F7E700BF24BB0000014BC01A5E
:1046900040117047DC820020014B03EB4010704753
:1046A000DC82002010B504468079FFF7F5FFC06971
:1046B000241AE410014800FB04F010BDABAAAAAA1A
:1046C0000023072B3FD870B483B003F5A2721F4CB0
:1046D00054F8222012F0030F08D00133DBB2072B6D
:1046E000F3D96FF0120003B070BC70479C00174AFA
:1046F00003F5A27552F8256026F44F3626F440766D
:1047000042F8256052F82560000200F47C5009044C
:1047100001F440310843304342F8250004F1804160
:1047200001F5C2410020086009680191019952F821
:10473000251041F0010142F82510012101FA03F38F
:10474000C2F80433CFE76FF01200704700600040FA
:1047500010B4134BD3F80443E4B2002300E0013358
:10476000072B1BD803F5A2720D4951F82220C2F382
:1047700005229042F3D124FA03F212F0010FEED099
:104780000A4603F5A27051F8201021F0010142F809
:104790002010012101FA03F3C2F8083310BC70475E
:1047A0000060004070B50D46866803689B681B7901
:1047B00001F01F0444EA43142046FFF7C9FF1F2CF1
:1047C00031D904F01F002D4B00F5E07253F8221090
:1047D00021F4403143F8221053F8221043F82210FC
:1047E000B268EA4012F0010F43D0F268EA4012F0DA
:1047F000010F40D07269EA4012F0010F1ED0B36978
:10480000EB4013F0010F12D13369EB4003F00103C9
:10481000DAB2F36923FA05F505F00105EDB2AA4213
:104820000AD0012104E020464FF0A043CCE7032149
:104830002046FFF745FF1DE00221F9E73269F169E3
:104840004A4022FA05F515F0010F10D0022400F5B8
:10485000E07053F8201021F4403143F8201053F851
:10486000202042EA044243F82020002002E00324F2
:10487000EDE7002070BD0020FCE700BF0003005002
:104880002DE9F04F83B0846803F47045B5F5804F8F
:104890003FD00CDDB5F5E04F38D012DDB5F5404F17
:1048A0002BD0B5F5504F09D14FF0070A11E0B5F5FF
:1048B000805F25D0B5F5405F25D045B16FF0150379
:1048C000A4E0B5F5A04FF9D14FF0030A01E04FF095
:1048D000000A03F44075B5F5807F20D0B5F5007F60
:1048E0001AD0002501951E46074603F0010BD94654
:1048F000012917D0D5B2A84643E04FF0060AE8E7F1
:104900004FF0010AE5E74FF0040AE2E74FF0050A2D
:10491000DFE74FF0020ADCE701250195E3E7032515
:104920000195E0E74FF01F0800252AE04FF0A04C6A
:1049300037E0A36801228A4023EA020343E0636967
:1049400001228A4023EA020345E0A36901228A404A
:1049500023EA020347E0236901228A4023EA020393
:1049600049E0E369012202FA01F123EA0101E16170
:1049700029463846FFF716FF0346002846D1013581
:10498000EDB2A84541D33B689B681A79294605F0EA
:104990001F0343EA42131F2BC8D903F01F03DFF89C
:1049A00074C04BEA4902019842EA800242EA0A22B4
:1049B00003F5E0734CF8232016F0020FB9D0A3687A
:1049C00001228A401343A36016F0200FB7D0636919
:1049D00001228A401343636116F0400FB5D0A369EA
:1049E00001228A401343A36116F0040FB3D0236958
:1049F00001228A401343236116F0800FB1D0E3698E
:104A0000012202FA01F11943B1E70023184603B06D
:104A1000BDE8F08F00030050F0B4866803689F681B
:104A2000F368B2681A407369B1690B4322EA030262
:104A30000121002016E04FF0030C24E04FF0A044C9
:104A400003F5E07354F8235025F4403544F823501F
:104A500054F8235045EA0C4544F8235022EA010259
:104A600001304900AAB11142FAD03C7900F01F038D
:104A700043EA44133469F5696C40C44014F0010FF3
:104A8000D9D04FF0020C1F2BD8D903F01F03024CD2
:104A9000D6E7F0BC704700BF00030050F0B4816857
:104AA00003689F68CA688B681A404B69886903432A
:104AB00022EA03023B68D3F81005CB6958400B6922
:104AC000584022EA00000121002411E04FF0A045E7
:104AD00003F5E07355F8236026F4403645F823606B
:104AE00055F8236045F8236022EA010201344900A9
:104AF00062B10A42FAD03D7904F01F0343EA45133C
:104B00001F2BE3D903F01F03014DE1E7F0BC704711
:104B10000003005008B50B4B1B780BB1002008BDFB
:104B2000084B01221A70002205210620FEF7E0FA48
:104B30000620FEF7B9FA044B4FF00042C3F80423F5
:104B4000ECE700BFB14000200060004070B584B0C9
:104B50000023029303934B4B1C68012C01D00022CD
:104B600011E0494D2846FFF799FF029005F10C002E
:104B7000FFF794FF0390434B00221A601B680093D9
:104B8000009BECE70132072A2CD8930003F58073D1
:104B9000012191403D48D0F804030142F2D09BB27C
:104BA00003F1804303F5C04319680129EAD102F5F6
:104BB000A271364850F82110090AC1F3401001F0E3
:104BC0001F01012505FA01F104AD05EB800050F845
:104BD000085C0D4340F8085C002119601B680193D4
:104BE000019BCFE7029E2EB9039E16BB012C3FD03E
:104BF00004B070BD244B9B68196811B121B10D68D8
:104C000007E00025294604E0002502E02B4629465E
:104C10001D460029E8D08B681E4203D04B683246FF
:104C200019489847002DF1D00DB12B68EFE700230C
:104C3000EDE7154B5B69196811B121B10D6807E00B
:104C40000025294604E0002502E02B4629461D46A2
:104C50000029CBD08B681E4203D04B6832460C48EB
:104C60009847002DF1D00DB12B68EFE70023EDE759
:104C7000054C2046FFF7D0FE04F10C00FFF7CCFEF8
:104C8000B6E700BF7C610040348200200060004035
:104C900040820020024BD3F80034002BFAD070473A
:104CA00000E00140024B0B6001231360704700BF1E
:104CB000F83E002070B50446124BD3F804654FF05F
:104CC000805215690222C3F80425FFF7E3FF6268EA
:104CD0000C4BC3F80825FFF7DDFFA3685B1BA3603F
:104CE00062682A446260002BF1D1064BC3F8046568
:104CF000FFF7D0FFA3680BB9002070BD4FF0FF3065
:104D0000FBE700BF00E0014008B50122114606485C
:104D100005F042FF4FF080525169044B196012694F
:104D20005A60002008BD00BF003F0020F83E002070
:104D300010B50C464FF0FF31094801F063F954B942
:104D4000084B0122C3F80425FFF7A4FF044801F033
:104D500047F9002010BD034B0022C3F80425F3E7F8
:104D6000003F002000E00140F8B54FF08054236977
:104D7000B2FBF3F52669606900FB06F088422DD985
:104D800000292EDB2669606900FB06F082422BD8E1
:104D900054184FF080563769706900FB07F0844261
:104DA00025D8B1FBF3F003FB101018BB03FB152350
:104DB0001BBB15B900242046F8BD15460C46104E05
:104DC0004FF0FF31304601F01DF92946204604F02E
:104DD00058FF0446304601F003F9ECE76FF0150484
:104DE000E9E76FF01504E6E76FF01504E3E76FF00D
:104DF0001504E0E76FF01504DDE76FF01504DAE75E
:104E0000003F0020F8B54FF080500569446904FB6D
:104E100005F48C4212D9002916DB0569406900FBB4
:104E200005F0834212D85C184FF080552E696869EE
:104E300000FB06F084420BD8012000E00020E0B126
:104E400043B900242046F8BD0020F8E70020F6E72B
:104E50000020F4E71D4616460C46094F4FF0FF317F
:104E6000384601F0CFF82A463146204604F05AFF72
:104E70000446384601F0B4F8E4E76FF01504E1E7C2
:104E8000003F0020054B1B6833B9054B1B780BB95D
:104E90000020704701207047012070471C2100400E
:104EA000B240002082B0054A0023136012680192CC
:104EB000019A034A137002B0704700BF1C210040E2
:104EC000B240002047F61223994262D010D9B1F5C2
:104ED000E13F66D038D9B1F5E12F66D046D8B1F5BB
:104EE000613F60D0364B994266D14FF0806215E049
:104EF000B1F5965F46D016D8B1F5167F59D008D9CE
:104F0000B1F5966F3BD0B1F5166F55D14FF41D2218
:104F100004E0B1F5967F4FD14FF4A032294BC3F88E
:104F2000242500207047B1F5615F2DD007D9B1F578
:104F3000964F2CD0B1F5E14F3ED1234AEEE7B1F5C3
:104F4000165F39D1214AE9E74DF6C023994223D0B3
:104F500007D9B1F5614F22D0B1F5963F2CD11C4A4B
:104F6000DCE7B1F5164F27D11A4AD7E7B1F5612F23
:104F70001DD0194B99421FD14FF08052CEE74FF40C
:104F80009E22CBE7154AC9E74FF46C12C6E7144AD4
:104F9000C4E74FF40002C1E74FF46502BEE7114ACF
:104FA000BCE7114ABAE7114AB8E7114AB6E7114A15
:104FB000B4E74FF41C32B1E76FF01500704700BF43
:104FC00090D003000020004000F075000050270042
:104FD00000903A0100509D0040420F0000B01300C5
:104FE00000A04E0000F0EB0000E0D70100B0AF03DE
:104FF00000705F0700D0BE0E094B1B6863B182B022
:10500000074B002018601B680193019B054BD3F8E8
:1050100018350B7002B070474FF0FF30704700BF7B
:10502000082100400020004010B50C46FFF73AFF71
:10503000064B01221A60083BC3F81C45FFF722FF0C
:105040000028FBD0024B01221A6010BD082000404E
:105050000C200040054B1B682BB1054BD3F8800496
:10506000C3F8800470470020704700BF242100402F
:1050700000200040F8B54B79012B29D18B79032B07
:1050800029D1CB793BB1012B28D103689B681B78D0
:105090003BB3012700E000270B7923B1022B15D089
:1050A0006FF0220310E000260C4605460968FFF762
:1050B00009FF0346C0B93E430D4AC2F86C65AA68B1
:1050C00094E8030082E803001846F8BD0E26EBE7DB
:1050D0006FF02203F8E76FF02203F5E76FF0220389
:1050E000F2E76FF02203EFE76FF02203ECE700BF77
:1050F00000200040F8B50F461646002407E0FFF7F1
:10510000D1FE631C395D074AC2F81C15DCB2254686
:10511000331B002B03DDFFF7B5FE0028EFD1284637
:10512000F8BD00BF0020004010B483B000230BE0A6
:105130000B4800240460006801900198581C094C39
:10514000D4F81845CC54C3B21846D41A002C03DD49
:10515000034C2468002CEBD103B010BC704700BF97
:105160000821004000200040024B0422C3F8042321
:10517000704700BF00200040024B0422C3F8082300
:10518000704700BF00200040024B1868003018BF75
:105190000120704708210040024B4FF40072C3F811
:1051A0000423704700200040024B4FF40072C3F804
:1051B000082370470020004010B504460E4BD3F87A
:1051C000043313F0800F08D10B4BD3F8043313F0E2
:1051D000040F08D10023184610BDFFF753FE002826
:1051E000F2D00123F7E72046FFF7CEFF0346002861
:1051F000F1D00123EFE700BF00200040024B19600F
:10520000024B1A60704700BF103F0020143F00207F
:1052100008B5034B1B6813B1024A1068984708BDD4
:10522000103F0020143F002008B5054B8022C3F832
:1052300008230C3301221A6005F0BFFA08BD00BF35
:105240000020004008B505F0B7FA0D4B01221A60A6
:10525000083B8022C3F804234FF02002EFF31183B0
:1052600082F31188BFF36F8F064A12781AB1064A8B
:105270000421C2F8001183F31188BFF36F8F08BDBA
:1052800008200040B240002000E100E030B583B0CB
:105290004FF0A0434022C3F808250324C3F8184761
:1052A0000021C3F82017184A0825C2F8145506250E
:1052B000C2F80C552025C3F80855C3F81447C3F8A5
:1052C0001C170523C2F808350723C2F8103581687A
:1052D000FFF7D0FE044610B1204603B030BD0A4BA4
:1052E0000422C3F80025094900220A6009680191D7
:1052F000019901211960064B19700220FDF7F8FE93
:105300000220FDF7D1FEE7E7002000400821004021
:10531000B24000200162084B0360084B4360084B19
:105320008360084BC360084B0361084B4361084B23
:105330008361C261704700BF959E0000059F000019
:10534000E99E0000CB9E0000B39E0000A19E0000DD
:105350009B9E000010B502F10044054B9C4203D90E
:10536000A02304F0DFFD10BD4FF48060FBE700BF19
:10537000FEFFFF7F30B585B015460C46B1B102681F
:10538000526A5269019200930DF10F032A46214699
:1053900005F0F8F8034630B99DF80F2042B114B17A
:1053A0002A680021A154184605B030BD024AE9E739
:1053B0004FF00043F7E700BF4BA2000038B50546A9
:1053C0000A4B53F8204000E00C346B1C074A52F89B
:1053D0002330A34208D923685B68204698470028F9
:1053E000F2D000236360EFE738BD00BF4CBE000081
:1053F00038B5114C00E00C34104B9C4208D0636867
:10540000002BF8D023681B688342F4D1204638BDB6
:105410000546094C00E00C34084B9C420AD06368F6
:10542000002BF8D023681968284602F00DF90028EF
:10543000F1D1EBE70024E9E7BC8100207082002075
:1054400010B586B004460A4B0593012304930F233D
:1054500003930023029301930093064B4FF4A07231
:1054600000F078FE637B23F00403637306B010BD85
:1054700068BE000077AD000010B586B000F0E2FC19
:10548000194C1A4B1C621A4B0593012304930023F9
:105490000393029301930093164B4FF42052164945
:1054A000204600F057FE637B03F0FB03637313F0A9
:1054B0001B0F05D1A3690BB1002302E0012300E01B
:1054C000002363B90D4C0E492046FFF7B9FF074B87
:1054D000DC6003F118029A61DA6106B010BD02487F
:1054E00000F02AFBEEE700BF843F0020F03F0020E1
:1054F00070BE000099550000B8400020183F002001
:10550000B868002008B5FDF71FFF0C4C0C480D4B88
:10551000986002F052F824F007040B4B184684F30D
:10552000098863B64FF0000181F31188BFF36F8FD4
:1055300000210022002301F065FC00BFB8680020B4
:10554000843F0020F03F00209955000008B5034833
:10555000034A121A002102F0BDF808BD0000002025
:10556000B440002008B50648064A121A064902F05F
:105570008DF8064A0649074802F088F808BD00BFC2
:1055800068810020FC82002098BE0000000000001E
:1055900098BE00000000002008B50220FFF70EFFB3
:1055A0000320FFF70BFF00F0EFFDFAF779FF034A46
:1055B000137B23F00103137308BD00BF843F002059
:1055C00000B59DB0FCF722F9164B83F30888164B03
:1055D0005A6942F400725A61E02283F822200024C2
:1055E000DC771C765C769C765A6A42F4E0225A623A
:1055F000FDF752FDFDF7BCFD01AD6C2221462846AA
:1056000002F068F801268DF81160084B9D60204675
:10561000FFF7D4FE3046FFF7D1FE2846FFF72CFFF8
:10562000FFF770FFF871002000ED00E0F03F002070
:1056300010B5054C03E0204605F0C0F81C34034BC0
:105640009C42F8D3002010BD9C820020B88200202C
:1056500038B54FF02003EFF3118583F31188BFF3C2
:105660006F8F44696CB10C6043691B684361836947
:1056700001338361002385F31188BFF36F8F1846D0
:1056800038BD22B900230B606FF00B03F3E713461C
:105690000C4602462946054800F0C2FB0346002896
:1056A000EDD1034A926852692260E8E7F03F00209A
:1056B000F03F002070B505460C464FF02003EFF395
:1056C000118683F31188BFF36F8F05F0E6F9C8B137
:1056D00003462268002181664261427B12F01F0F5F
:1056E00005D182690AB1002202E0012200E0002215
:1056F00022B931460A4800F063F970BD184600F03F
:105700001BFAF6E723686A691A6023686B61AB6964
:10571000013BAB6186F31188BFF36F8FEDE700BFEC
:10572000F03F0020C0EBC0008300014818447047E0
:10573000B8820020034BC01A8010034B03FB00F01B
:10574000704700BFB8820020B76DDBB610B5054CBE
:1057500003E0204605F040F81C34034B9C42F8D38C
:10576000002010BDB8820020B88200202DE9F04F43
:1057700087B006460D4692461F1E02DC4FF0000819
:1057800042E000F043FECDE90201FB174FEAC339C6
:1057900049EA57494FEAC7384FF4A0220023DFF8FF
:1057A000ACB04FF0000C1BEB08004CEB0901FAF712
:1057B000A7FCDDE9028918EB000825E014F10B0FC6
:1057C00035D03046FFF7B6FF28716B79049A62F343
:1057D00003036B716B68059A62F31F336B6084B3CC
:1057E0007FB314F10C0F2CD106F114014FF02003FC
:1057F000EFF3118083F31188BFF36F8F3A4600F007
:10580000E3FAB7F1FF3F15D14FF0000BBBF1010FE9
:10581000D4DC009505AB04AA5146304601F03DFAB0
:10582000044610F10B0FC9D10BF1010BEEE76FF03D
:105830000B04C6E700F0EAFDB8EB0007E4D56FF013
:105840000A04204607B0BDE8F08F00BFFFFF040048
:1058500038B504460078FFF765FF05466178226891
:10586000120B01F00F0101F0ABFA4FF02003EFF340
:10587000118483F31188BFF36F8F05F1140005F0D5
:1058800049F920B984F31188BFF36F8F38BD2146E1
:10589000014800F095F8F9E7F03F002008B501460F
:1058A000044B9B68186E10B104F09EFF08BD0020E9
:1058B000FCE700BFF03F002038B54FF02003EFF3C6
:1058C000118483F31188BFF36F8F02688AB1136864
:1058D00023F00303036041688A4208D00121104687
:1058E00005F01FF884F31188BFF36F8F38BD436054
:1058F000F4E700F1080559B10B4600F10802214612
:10590000284600F08DFA48B9054B9B685869EDE7C9
:1059100084F31188BFF36F8F0020E7E70020E5E7ED
:10592000F03F002008B5FCF79FFB054B1B681844AF
:10593000044A10610021184605F0C7F908BD00BFF0
:1059400024400020F03F00202DE9784B04460E460D
:1059500000234FF02002EFF3118582F31188BFF38B
:105960006F8F21E0124B00221A61E3174FEAC33C0C
:105970004CEA544C4FEAC43B4FF4A0220023DFF81A
:105980003C804FF000091BEB08004CEB0901FAF7D3
:10599000B7FB084B1860084B1E60FFF7C3FF85F389
:1059A0001188BFF36F8F0123002BDBD0BDE8788B0C
:1059B000F03F00202440002020400020FFFF040092
:1059C00008B5EFF305830D2B07D86BB10A4B5B6865
:1059D00013F4006F0AD0002300E0012343B181F3E8
:1059E0001188BFF36F8F08BD0023F7E70123F5E7A8
:1059F0000846FDF76BF9F6E700ED00E008B5EFF3B8
:105A000005830D2B07D86BB10A4B5B6813F4006F4D
:105A10000AD0002300E0012343B180F31188BFF3D3
:105A20006F8F08BD0023F7E70123F5E7FDF74EF977
:105A3000F7E700BF00ED00E000234FF02002EFF396
:105A4000118182F31188BFF36F8F09E0064B9A68CA
:105A5000D37B013BD37381F31188BFF36F8F012395
:105A6000002BF3D0704700BFF03F00200A4B834269
:105A700009D04B680A681A600B684A685A600023AC
:105A80000B604B607047243B9B688B42F1D14B7B92
:105A900013F01F0FEDD0F5E71440002038B5054690
:105AA0000F4804F0B6FF044688B13DB90D4B9B6822
:105AB0005A7B12F01F0F01D1A2695AB1094B9B68A2
:105AC000A34201D0FFF72EFF064B1C6238BD054BE9
:105AD000DC68EAE7DA897F2AF0D9024A1362F5E73F
